:020000042400D6
:100000000000022055D103244D0B0124C9470124CF
:1000100099480124A9480124A148012400000000B6
:100020000000000000000000000000004D0B012453
:100030004D0B0124000000004D0B0124B1A4000071
:100040004D0B01244D0B01244D0B01244D0B0124BC
:100050004D0B01244D0B01244D0B01244D0B0124AC
:100060004D0B01244D0B01244D0B012479B80000E8
:1000700085B800006DB8000091B800009DB8000080
:10008000C9B700003DB800004D0B01244D0B012401
:100090004D0B01244D0B01244D0B01244D0B01246C
:1000A0004D0B01244D0B01244D0B01244D0B01245C
:1000B00075AE022481AE02248DAE02246922012491
:1000C0004D0B0124752201244D0B0124C51E012472
:1000D000D11E01244D0B01244D0B01244D0B012495
:1000E0004D0B01244D0B0124000000004D0B012499
:1000F0004D0B01244D0B01244D0B01244D0B01240C
:100100004D0B01244D0B012499AE0224DD1E012468
:10011000C1B800004D0B012465AB02244D0B012436
:10012000A9B80000B5B80000D5B7000009B80000B4
:100130004D0B01244D0B01244D0B01244D0B0124CB
:1001400000000000000000000000000000000000AF
:100150004D0B01244D0B01244D0B01244D0B0124AB
:10016000812201244D0B0124CD130124F11301241C
:100170004D0B0124151401244D0B01244D0B0124BA
:100180004D0B01244D0B01244D0B01244D0B01247B
:10019000E91E0124F51E01244D0B01244D0B012401
:1001A0004D0B01244D0B01244D0B01244D0B01245B
:1001B000892C01244D0B01244D0B01244D0B0124EE
:1001C0004D0B01244D0B01244D0B01244D0B01243B
:1001D0004D0B0124A52F01244D0B01244D0B0124AF
:1001E0004D0B01244D0B01244D0B01244D0B01241B
:1001F0004D0B01244D0B01244D0B01244D0B01240B
:100200004D0B01244D0B01244D0B01244D0B0124FA
:100210004D0B01244D0B01244D0B01244D0B0124EA
:100220004D0B01244D0B01244D0B01240000000057
:100230004D0B01244D0B0124000000004D0B012447
:100240004D0B01244D0B01244D0B01244D0B0124BA
:100250004D0B01244D0B01244D0B01244D0B0124AA
:100260004D0B01244D0B01244D0B01244D0B01249A
:100270004D0B01244D0B01244D0B01240000000007
:100280004D0B01244D0B01244D0B012400000000F7
:08029000000000004D0B0124E9
:100298000000000000000000000000000000000056
:1002A8000000000000000000000000000000000046
:1002B8002DE9F04F83B00E4605465E496846144660
:1002C8000BF002FD5C4A5D4913685D4F1B1B012B57
:1002D8000B6013605B4B5C4ADB68D8BF023BD362A0
:1002E800D7F88424D7F88034D21A584BA3FB0213CA
:1002F8009B0903EBC303A2EB431294425CD3002C8B
:1003080054D0A20003D0304600210BF04DFC002150
:100318004F4A05F1040CD2F8048747F6FF7055F8E8
:10032800213008F1010A4B4E83F400034A4FA6FB23
:100338000AE902EB4808A3F500034FEA991987FB7D
:1003480003EB4FEAE37E09EB49095CF82130CEEB79
:10035800AB1E0231AAEB491983F400030EF30F0E0A
:10036800A0EB0E0EC2F80497A3F500038C42A8F880
:1003780040E6D2F8CCE787FB03974FEAE3730EF128
:10038800010802EB4E0EC3EBA713A6FB089603F376
:100398000F034FEA9616A0EB030006EB4606AEF8ED
:1003A8000807A8EB4616C2F8CC67B4D868460BF025
:1003B80067FC03B0BDE8F08FD7F8803404EB03087E
:1003C800B8F5907F27D84FEA8802A146A2EB8302AE
:1003D80007EB8301042A23DD30460BF031FC4C4542
:1003E8000BD0A4EB09024FEA890306EB89009200BF
:1003F800042A1ADD12490BF023FC144BA3FB082333
:100408009B0903EBC303A8EB4313C7F88034002C04
:100418007FF47DAFCAE7C3F590794FF49062D5E7D2
:10042800DDD157F823303360D9E7E6D13A68F25086
:10043800E3E700BFF45E0020243A0020203A0020C1
:10044800283A0020B03E002000100040398EE338E2
:10045800F41F0120ABAAAAAA61606060032804D82F
:10046800024B03EB80000AF073B97047AC0100201F
:1004780003280AD904380123064AC0B21268834007
:10048800134214BF012000207047034B03EB800088
:100498000AF070B96C470020AC01002038B5002183
:1004A80011480AF055F901210F4800240F4D0AF0B0
:1004B8004FF90CE0134301210D4801342B600AF079
:1004C80047F900210A480AF043F9092C0AD00948DB
:1004D8000AF050F901232A68A3400028EAD122EA49
:1004E8000303E8E738BD00BFC40100206C470020C3
:1004F800C80100207047002038B5144C0020FFF7D1
:10050800CDFF6579201D0BF0E3FB002240EA450092
:100518000F49607120460F4C00F074FD6579201D6D
:100528000BF0D6FB40EA4500C0B28028607103D0CA
:10053800BDE8384000F0D6BD082300220220194645
:100548000BF076FBBDE8384000F0CCBD043F00203E
:10055800A4010020FC3E00202DE9F0470C4680460F
:100568006FF001002DED028B0BF092FB05464FF06A
:10057800FF300BF08DFB064620460BF021FB0746AB
:1005880020460BF0D5FB97F805906022B9F1000FD3
:1005980000F09080B9F10A0F4FF0000128463ED9CB
:1005A80007EB04090BF000FB6022002130469FEDA9
:1005B800468A0BF0F9FA99F806302946082000EE29
:1005C800103AB8EE400A80EE080A0BF01DFB99F8C5
:1005D80006303146092000EE103AB8EE400A80EEA7
:1005E800080A0BF011FB394B93F80090B9F1000F92
:1005F80011D007F1060E0027BC4205D09EF8003046
:1006080013B1D8F800200ABB01370EF1010E08F12A
:100618000C084F45F0D1BDEC028BBDE8F0870BF01C
:10062800C3FA3B19787929469B799FED270A013847
:1006380007EE903AF8EE677A87EE800A0BF0E4FA54
:100648006022294630460BF0FBFACCE7D8F80410B4
:10065800B44602F1600A002914BF0846104629462C
:1006680001E09EF8003007EE903AB2EC017ADFED37
:10067800166AF8EEE77A91ED006A524567EE877AD6
:1006880087EEA67A77EE067AE1EC017A9EF80030DA
:10069800B0EC017A07EE903A9CED006AF8EEE77A42
:1006A80067EE877A87EEA67A77EE067AECEC017A1F
:1006B800D7D1A9E7494628460BF076FA4946602281
:1006C80030460BF071FA8EE70000C842A8010020FE
:1006D8002DE9F047D44C804622682DED048BB0B04C
:1006E800002A71D0616800296ED0D04B1820D1ED56
:1006F800006A92ED007A93ED005A93ED023A93ED79
:10070800014AD3ED035AD3ED053AD3ED044AC8495B
:1007180040E0B8EEC46AF8EEC57AE7EE467AFDEE38
:10072800E77A17EE902AD1F884641202C14B751C3F
:10073800DFEDC17A41F82620A3FB0523F4EEE76A32
:100748009B09F1EE10FA03EBC303A5EB4313C1F8C1
:10075800843440F17082B8EEE46AF8EEE57AE6EEA9
:10076800C67AFDEEE77A17EE902AD1F88464120271
:10077800B04B013806F1010541F82620A3FB0523FB
:100788004FEA931303EBC303A5EB4313C1F8843477
:1007980000F06982DFEDA87AB4EEE77AF1EE10FA9C
:1007A800B7D4DFEDA67AB4EEE77AF1EE10FA40F3AB
:1007B8005482B8EEC36AF8EEC57AE7EE467AFDEEE3
:1007C800E77A17EE902AAEE7002618AC60220021DF
:1007D8006846B14637460BF0E7F96022002120460B
:1007E8000BF0E2F948460BF0A3FAC3680546D0F8C7
:1007F80040A2DA0740F1BF8040F601029A4300F0B8
:100808000D81B7EE008AF0EE488A9AF80500F8B133
:100818009AF80F30E3B107EE903A9FED899A0A28CB
:10082800F8EE677A87EE890A00F21881013869467E
:100838000BF0EAF99AF80F309AF80500214600EE15
:10084800103A0138B8EE400A80EE090A0BF0DCF9DC
:100858009AF80B30022B00F0D580032B00F0C480EF
:10086800012B0DD1D8F80020002A40F04681D8F895
:100878000420002A40F03581EB6803F001031E4391
:1008880009F1010908F10C08B9F1040FAAD1684A65
:10089800D2F8845405F13001B1F5907F00F250810F
:1008A800644B02EB8505A3FB01039B0903EBC30320
:1008B800A1EB4313C2F88434002E00F045815B4B52
:1008C80093ED006A93ED025AD3ED015A002F40F0E0
:1008D8002E825C4B05F1080269462046D3ED004A9A
:1008E8002DE0F8EEE56AF8EEC67AE7EE667AFDEEF8
:1008F800E77A17EE903AF0EC017A1B029FED527AF4
:1009080077EEA47A42F8083CF4EEC77AF1EE10FAD2
:1009180040F26F829FED4D7AF4EEC77AF1EE10FA4D
:1009280080F28582B0EE677ABEEEE47A17EE103A6E
:100938008C4242F8043C02F1080200F05581B1EC07
:10094800017ADFED3D7AB4EEE77AF1EE10FAC8D419
:10095800DFED3A7AB4EEE77AF1EE10FA40F3698205
:10096800F8EEC56AF8EEC67AE7EE667AFDEEE77A43
:1009780017EE903ABFE79AF80D309FED359A07EEDB
:10098800903ADFED348A9FED348AF8EE677A87EE85
:10099800890A20EE280A09F0C1FF9AF80D30B0EE56
:1009A800407A07EE903A9AF80C30F8EE677A87EEBC
:1009B800890A07EE903AF8EEE77A20EE280A67EE01
:1009C800888A68EEA78A68EE878A09F0E3FF9AF8B2
:1009D8000C3007EE903AF8EEE77A27EE888A28EE90
:1009E800278A28EE008A10E7D8F80020002A40F06D
:1009F8009580D8F80420002A62D1EB6803F001033F
:100A08001F433DE7D8E90002C8BB002A40F0018136
:100A1800EB6803F001031E431F4331E7B2EE008A7F
:100A2800F0EE488AF1E600BF60F20020781F01204E
:100A3800283A0020398EE33817B751B917B751391A
:100A48000000C842183A002004FF7FBF04FF7F3F20
:100A580000007F43DB0FC93F8000803869460820CB
:100A68000BF0D2F89AF80F302146092000EE103A20
:100A7800B8EE400A80EE090A0BF0C6F8E8E601462F
:100A88006B46F3EC017AB1EC017AA342E8EE877A7F
:100A980043ED017AF5D1002A40F0BB802346F3EC00
:100AA800017A30AAB0EC017A9342E8EE077A43ED76
:100AB800017AF4D1EB6803F001031E431F43DFE61C
:100AC8002346F3EC017A30A9B2EC017A8B42E8EEC6
:100AD800077A43ED017AF4D1EB6803F001031F4371
:100AE800CEE66B46F3EC017AB2EC017AA342E8EE6B
:100AF800077A43ED017AF5D1BEE66B46F3EC017A4D
:100B0800B2EC017AA342E8EE877A43ED017AF5D197
:100B1800D8F80420002A3FF4AFAEE2E72346F3EC0E
:100B2800017A30A9B2EC017A8B42E8EE877A43ED7C
:100B3800017AF4D1D8F80420002A3FF45EAFBFE769
:100B48000025002E7FF4BBAEBE4BD3ED006A002F0C
:100B580040F0A880BC4B05F108026946204693ED99
:100B6800006A13E09FEDB97AF4EEC77AF1EE10FA55
:100B780080F24181B0EE677ABEEEE47A17EE103A61
:100B8800A14242F8043C02F108022DD0F1EC017AAE
:100B98009FEDAF7A77EEA67AF4EEC77AF1EE10FA07
:100BA80040F213819FEDA97AF4EEC77AF1EE10FABC
:100BB80080F22381B0EE677ABEEEE47A17EE103A3F
:100BC800F0EC017A9FEDA27A77EE867A42F8083C3B
:100BD800F4EEC77AF1EE10FAC4D89E4BA14202F1A6
:100BE800080242F80C3CD1D12146684618220BF085
:100BF80083F82A68984B9949134499488B4294BFC3
:100C08000021012109F0A4FD30B0BDEC048BBDE842
:100C1800F0872346F3EC017A30A9B2EC017A8B42D3
:100C2800E8EE077A43ED017AF4D1EB6803F00103AB
:100C38001E431F4324E6DFED8B7AF4EEE76AF1EEFC
:100C480010FA0DDDB8EEE36AF8EEE57AE6EEC67A5C
:100C5800FDEEE77A17EE902A87E515EE102A62E591
:100C680015EE902A81E5DFED807AB4EEE77AF1EEB1
:100C780010FA15DADFED7D7AB4EEE77AF1EE10FAC4
:100C880094BF01210021764809F062FD0122D4E9D0
:100C9800000130B0BDEC048BBDE8F0470BF02CB878
:100CA8000121F0E7724B05F1080269462046D3EDB1
:100CB800035AD3ED054A93ED045A2BE09FED637A6E
:100CC800F4EEC77AF1EE10FA80F2B680B0EE677AE9
:100CD800BEEEE47A17EE103AB0EC017ADFED657AF1
:100CE80042F8083CB4EEE77AF1EE10FA40F187805A
:100CF800B8EEC56AF8EEE57AE7EE467AFDEEE77AF1
:100D080017EE903A1B028C4202F1080242F80C3CA2
:100D18003FF46AAFF1EC017A9FED4D7A77EEA67A4F
:100D2800F4EEC77AF1EE10FAC8D84A4BD4E7D3EDFF
:100D3800034A05F10802D3ED053A694693ED044AE2
:100D4800204627E0F8EEE56AF8EEC67AE7EE667A1E
:100D5800FDEEE77A17EE903AB0EC017A1B02DFED70
:100D6800457A42F8083CB4EEE77AF1EE10FA2ED54F
:100D7800F8EEC46AF8EEE47AE7EE667AFDEEE77A12
:100D880017EE903A1B028C4202F1080242F80C3C22
:100D98003FF42AAFB1EC017ADFED367AB4EEE77AA8
:100DA800F1EE10FACED4DFED2F7AB4EEE77AF1EE59
:100DB80010FA36DDF8EEC56AF8EEC67AE7EE667A1E
:100DC800FDEEE77A17EE903AC6E7224BF8E6DFED3C
:100DD800257AB4EEE77AF1EE10FA25DDF8EEE36A4B
:100DE800F8EEE47AE7EE667AFDEEE77A17EE903AE7
:100DF800C8E7184B9CE5204BC2E61F4BE0E6DFED49
:100E0800197AB4EEE77AF1EE10FA17DDB8EEE46A73
:100E1800F8EEE57AE7EE467AFDEEE77A17EE903AD5
:100E280070E716EE103A97E714EE903AAAE7124BDD
:100E38007EE516EE103A5EE50F4B4DE715EE903A5B
:100E480060E700BF1C3A0020183A002004FF7F3FEB
:100E580004FF7FBF7E0080FF81FF7F0002FFFF004D
:100E6800BC01002017B7513904FFFF4A04FFFFCA2D
:100E7800781F012017B751B982FF7F0070B582B083
:100E880009F07CFE0AF0B8FE00214FF0FF300AF0AE
:100E980007FF514A138801339BB21380002B00F0DF
:100EA80097804E488468002C40F08D804C494D4A0C
:100EB800D1F88034D1F88414013B5B1AA2FB0312E9
:100EC800920902EBC202A3EB42132F2B28D8464CFF
:100ED800D4F80431D4F800219B1ADBB2D3B1434DC6
:100EE800D4F800212868531CA15C0668DBB272683C
:100EF800C4F80031904709F041FED4F80431D4F821
:100F080000219B1ADBB2002BEAD10AF029FE28B196
:100F180009F034FE0AF024FE0028F9D102B070BDB1
:100F2800334D0AF0E5FE334E0AF022FE22462846EB
:100F3800C8214FF0640C10F8013F01FB02611B014E
:100F4800D1F8C4405BB2611E5F2988BF04F15F011C
:100F58000CFB0211013236F81110B1F50F4F88BFA2
:100F680043F00F03082A0370E2D1234E00243068AF
:100F7800234606E0FF2901D1104301240133082B41
:100F880010D015F8011F4FF480320F2902FA03F22E
:100F9800F0D14FF0011201249A400133082B40EAA6
:100FA8000200EED104B1306000F0DEF900231349ED
:100FB800684633600AF088FE01200AF091FE684610
:100FC8000AF05EFE83E7C36802B0BDE870401847C8
:100FD8000B4809F0DDFB64E7143A0020FC390020D7
:100FE800283A0020398EE338080100301CE200203E
:100FF8000B3A0020F41F012004280120F05E002095
:101008009847002038B543790D46802B13D0044605
:1010180023B90B68013312D1002038BD7F2BFBD1D7
:1010280012B10B680133F7D04FF0FF332B60206803
:10103800A0B9022038BD0AF0BFFD2860ECE70AF02D
:10104800BBFD254B2A681B68801A8342E4D24FF007
:10105800FF332B602068F8B9032038BD1F4980B2E0
:101068001F4A0D88D2F88030D2F88410013B5B1AF1
:101078001B07F7D0D2F884404FF0020C02EBC403F0
:10108800611C22F834C001F00F0158800020DD8077
:10109800C2F884109880CCE7104980B2104A0C88B6
:1010A8000443D2F88030D2F88410013B5B1A190748
:1010B800F7D0D2F884504FF0030C02EBC503691C3B
:1010C80022F835C001F00F0158800020DC80C2F8FA
:1010D80084109880C0E700BF20E300202AE30020A6
:1010E80048E200202DE9F843964C0026251F04F11C
:1010F8002008677820460AF0EBFD40EA4700C0B2B6
:101108006070C00702D434F8043C1E430834A0457C
:10111800EFD18D4F05F120098C4CB8462680284622
:10112800083541460022FFF76DFF4D4508F10408D8
:10113800F5D1874D95F80C8028460AF0C9FD40EA9C
:10114800480095F80D802873681C0AF0C1FD40EA34
:101158004800DFF8108298F80C90687340460AF04F
:10116800B7FD40EA490098F80D9088F80C0008F19E
:1011780001000AF0ADFD98F8021040EA4900D8F8DD
:101188000820C0B288F80D0011B1002A40F088800C
:1011980098F80C3000F0030003F00303022B79D118
:1011A800002877D1012398F8030000B15B4221B1F0
:1011B800D8F80410994200F0AE800022C8F8043034
:1011C800C8F8082018B2634AD2F88030D2F88410E0
:1011D800013B5B1A1907F7D0D2F88430042122F8B2
:1011E8003310591C02EBC30301F00F019880C2F8B9
:1011F80084104FF48072DE805A80002E40F09E806A
:10120800A878A96818B111B1103921EAE1712B7BCE
:101218006A7B03F0030302F00302022B47D1002A82
:1012280045D10123EA7802B15B42002845D100226A
:101238006B60AA605B42474A18B2D2F88030D2F895
:101248008410013B5B1A1B07F7D0D2F884300421C5
:1012580022F83310591C02EBC30301F00F019880E8
:10126800C2F884104FF40072DE805A80002E61D1DB
:10127800394A218813888B4233D00023374811809C
:10128800374C03600AF098FC2368C01A31282CD820
:10129800BDE8F883022807D133B94FF0FF3382E75E
:1012A800103A22EAE27273E7C8F80820A8E7022A8F
:1012B8002FD173BB4FF0FF33B4E76A689A42B6D1B7
:1012C800D031B1F5805FA8BF4FF48051A9600912F1
:1012D80001FB0333002BADD11F4A218813888B42B1
:1012E800CBD11E4803680133CAE70AF065FC194BE5
:1012F80001252060D3F8841000244A1903EBC100AB
:1013080043F8315002F00F024460C3F88420BDE86E
:10131800F883A960ACE7D032B2F5805FA8BF4FF47C
:101328008052C8F80820121202FB0333002B3FF446
:1013380067AF47E70AF040FCF86099E70AF03CFC21
:10134800B8605DE7F4E2002010E300202AE3002003
:10135800E0E2002048E2002028E3002024E3002007
:1013680044E20020D0E20020814B824A5B682DE9EC
:10137800F04F002487B0CDE902327F4A01237F482D
:101388001268A3409442A4EB020180F2DD807C4AFB
:101398001268134214BF01230023002B40F0DB80A6
:1013A8000134102CE9D1DFF804A2DAF80030013357
:1013B800CAF800300AF060FC724B8AF80400D3F8CF
:1013C80000B0BBF1000F00F0CC806F4B0025DFF8B8
:1013D800E0915846DFF8DC819E4609E001350EF1C0
:1013E800300E09F1040908F10608854200F0B980B9
:1013F800092DF3D8DFF8C0C1C8230022602103FB00
:1014080005C34FF6FF7714461646D3F8C030CDF81B
:1014180000904FF0640B03F101090BFB053B3CF80E
:101428001B309F4228BF1F469E4238BF1E469B184E
:101438001A46564B44F100040139A3FB09B34FEA9D
:10144800931303EB4303A9EB4313E2D1D31BDDF85A
:10145800009064F100029B1B62F10002D90D41EA81
:101468004221D717C1F31604C3F3160107F0150676
:1014780027F02D072144464C01EB92313144A4FB5F
:101488000164444E640904EB440BC4EB0B14091BC0
:1014980039445B1A62EBE1713F4A02FB03F206FB37
:1014A8000122A3FB0636921900D50133C3F34F037B
:1014B800AEF13004834607EE903AB8F8303007EEC4
:1014C800103AF8EE677AB8EEC77A77EEC77AF5EE93
:1014D800C07AF1EE10FA4CBFB8F83230B8F83430B0
:1014E80007EE103AB8EEC77AC7EE876AC9ED006A08
:1014F80013E0D1F8C0707A1C06FB0577A3FB0263E2
:101508003CF817609B0924F8026F744503EB43030A
:10151800A2EB4313C1F8C03014D0C8211B4B1F4F96
:10152800642601FB05C1D1F8C420D1F8C000121A05
:1015380003FB02F2B7EB721FDBD3268824F8026F95
:101548007445EAD1584649E7435CA3F10F03B3FA5F
:1015580083F35B0921E70AF02FFB114B43F82400C2
:101568001EE7074B00250F4A1C682B460E492AE048
:10157800001000E01CF70020741F01204CF0002030
:1015880004280120701F012082F00020ABAAAAAA1B
:101598005D414CAECF467D67A3BEB351AAAAAA024D
:1015A800C42701204CEF00202CF000206804002004
:1015B80034F20020781F0120F41F0120013342ED8E
:1015C800017A082B19D0B7EE007AF2EC016AF1EC37
:1015D800017AF4EEC76AF1EE10FAEFD5F4EEC77AA5
:1015E8004FF480709840F1EE10FAE7DD01330443C0
:1015F800012542ED017A082BE5D10DB1A44B1C6001
:10160800A44B4FF00008A44F0093DFF8BC92A34B03
:10161800DFF8C8B20193009B00227D680593002380
:10162800CAE90433AAF81C309D4B5B6804933C2339
:10163800CAF818300023CAE90223EB6818071CD53A
:101648003A7AD2B1974B1968531E8A4200F26A81DE
:1016580001228F499A4009680A424FF4803202FAFF
:1016680003F314BF012200220B42CAF8102014BF52
:1016780001230023CAF80C30EB68D90612D57A7A10
:1016880082B18849013A09688A4280F2728101214F
:1016980001FA02F27E4909680A4214BF01220022B7
:1016A800CAF808209A0651D5BB7A83B15A1E092A6E
:1016B80000F368817C4B03EB8203D3ED007A9FED46
:1016C8007B7A67EE877AFDEEE77ACAED057AD5F878
:1016D8004022774CD378D5F82001002B04EBC303C4
:1016E800127C596808BF0021884203D195F824313B
:1016F80093422BD005F110000AF00AFBD5F84032CE
:10170800DB78002B04EBC304D5F83832616808BFD6
:1017180000218B4240F0008195F83C32002B40F0CC
:10172800FB80D5F854328BB105F5117402E0236EB5
:1017380050345BB1E36C5B07F9D500222046503486
:1017480011460AF065FA2369002BF3D1BB7C3BB143
:10175800584B594A186803681B68934240F018812F
:10176800AB68012B03D1CAE903330023AB60DAF875
:1017780010300BB10223AB6040F20442EB681A420E
:1017880040F0AE80D5F85432002B00F0B28005F559
:1017980011744A4EA36C314620465BB10AF040FAF8
:1017A800A36C0644464AD3F800C018462146DCF824
:1017B80010309847236E5034002BEBD1DAF81030F4
:1017C800002B48D1DAF80C30002B40F099802B68B8
:1017D80000225B69C9E900223A4A934240F08B80B3
:1017E80040460AF0A1FA354B9E423DD104A808F1C3
:1017F80001080AF045FA009BB8F1040F07F51F67C6
:1018080003F1040309F10C090BF1040B0093019B8C
:1018180003F1040301937FF4FEAE2B48FEF758FF53
:101828002A4B1B6833B92A4B186818B10368264934
:101838005B689847274B1B78002B40F0AD80264B00
:101848001A68612A01D101221A6002A80AF018FA5E
:1018580007B0BDE8F08F0AF0FFF9DAF81030CBF8DE
:101868000000002BB3D1ADE7D5F85432002BBDD022
:1018780005F51175114CAB6C2146284613B10AF0D9
:10188800A3FA04442B6E5035002BF4D1AEE700BF09
:10189800042801200CF7002020F70020501F012009
:1018A800001000E0741F012034F200200000C04442
:1018B800F4E600201CE20020DD240224ECEE0020E7
:1018C80068040020E1240224201F0120580400207D
:1018D80068E6002084540020181F0120601F0120A2
:1018E80041465048FEF738FED5F85432002B7FF4B5
:1018F8004EAF4D4E62E74A464C49284698476FE737
:101908000AF0AAF90199DBF800300A68C31A934271
:1019180038BF13460B605AE7002205F594700AF0A9
:10192800F7F9FEE60A2A43D8012101FA03F34049F0
:1019380009680B42A2F1050314BF01210021092BFC
:10194800CAF8101062D93B4B03EB820252ED0F7AB2
:101958009FED397A67EE877AFDEEE77A17EE903ACF
:10196800B3F5407FD4BF00230123CAF80C30EB68DD
:1019780083E6521A31498A5CA2F10F02B2FA82F266
:1019880052098DE62B4A02EB830353ED0B7A96E658
:10199800264A41469847E3E60AF0EEF90368284AE2
:1019A8005B6993423FF44BAF1E4A2049984746E78C
:1019B800994222DC5B1A2148C35CA3F10F03B3FAF6
:1019C80083F35B09CAF810301E4B1B685B1A13447B
:1019D8005A1E092A20D81C4B03EB820393ED007A88
:1019E800F7EE007AB4EEE77AF1EE10FACCBF0123F5
:1019F8000023CAF80C30EB683FE6012098400C4BF6
:101A08001B68184214BF01230023DBE70E4A02EBD0
:101A18008303D3ED007A9BE7064A02EB830313EDB9
:101A28000B7ADDE7201F0120ECEE0020680400207F
:101A3800042801202CF000200000C0444CF00020B5
:101A4800E1240224701F012034F20020704700BFF7
:101A5800806B08B5FFF7FAFF08BD00BF836B5A6DAE
:101A680012F0500F5A6D10B51DD1196842F400726A
:101A78005A650A6812F0080FCA681BD012F4406F42
:101A88000DD1CA6894040AD45A6D22F480725A653A
:101A98005A6DD10403D45A6D42F001025A651846B2
:101AA80009F0EEFA10BDD2060AD4DB6CBDE810408E
:101AB800DB6C18479007E7D0184609F0E1FAF1E720
:101AC800184609F03BFB10BD806B08B5436D43F029
:101AD80040034365836D43F00403836509F02EFBDF
:101AE80008BD00BFF0B5002283B0019290F85020E5
:101AF800012A00F0F580034601201A6883F8500097
:101B08009468640754D40C68C4F31305C4F3846E52
:101B1800002D40F09E8000FA0EF0D5694C682843ED
:101B28001F254FEA941CD06104F01F000CF00C0430
:101B380002F1300C0EFA00FE85405CF8040020EA41
:101B4800050040EA0E004CF80400906810F0040FFD
:101B5800906801D1070735D59068C60714D4CE68B8
:101B6800086806F01807B64CD2F8C050FC40C0F31D
:101B78001307044025EA07052C43C2F8C040B14CBE
:101B8800A64271D0002801DB002016E0AE498A4247
:101B980004D001F580718A4240F0C180AB48AA495F
:101BA800AB4A806889689268D20701D4CF07EBD521
:101BB8005A6D012042F020025A65002283F8502015
:101BC80003B0F0BD0C6802F1140C4FF0070E8E68DC
:101BD800E50DC4F3045405F004050EFA04FE06FAF4
:101BE80004F45CF8050020EA0E0020434CF80500D8
:101BF80098484D69006800F07040B0F1805FD06887
:101C08002DD010F0100FD06829D0400800F008003F
:101C180085400E690868042E65D002F1600C00F05A
:101C2800F8445CF8260000F00040204328434CF8B4
:101C380026004C7E0D69A4F101045CF82500B4FA75
:101C480084F420F00040640940EAC4704CF8250090
:101C580082E794FAA4F4B4FA84F4A0405DE7C0F3F0
:101C6800820040008540D4E7002F79D090FAA0F494
:101C7800B4FA84F4013404F01F04092C00F29380B0
:101C880090FAA0F4B4FA84F490FAA0F5B5FA85F5C0
:101C9800013401260135A40605F01F0504F0F844B7
:101CA80006FA05F52C4390FAA0F0B0FA80F030441B
:101CB80000F01F0000EB40000005044302F1140689
:101CC8000727E50DC4F3045405F00405A74070592F
:101CD80020EA07008F68A74038437051086851E729
:101CE800022003B0F0BD156E840605F0F845B5EB8B
:101CF800806F4ED0506E00F0F840844244D0906E11
:101D080000F0F840844249D0D06E00F0F840844298
:101D18007FF422AFD06E20F00040D0661CE74E4C16
:101D28004E49A6688D68ED073FF542AF4C4D06F069
:101D3800E077A84262D04B4DA84251D04A4DA84204
:101D48007FF422AF70023FF51FAF8A427FF41CAFC9
:101D5800A26822F0E0723A4342F48002A26013E7DC
:101D6800800E0124013000F01F058006AC4000F011
:101D7800F840092D44EA000405EB45009CD91E38BB
:101D8800000540F0007098E7506E20F00040506663
:101D9800B5E7106E20F000401066ABE7906E20F0BB
:101DA80000409066B0E790FAA0F4B4FA84F490FA90
:101DB800A0F5B5FA85F5013401260135A40605F02C
:101DC8001F0504F0F84406FA05F52C4390FAA0F034
:101DD800B0FA80F0304400F01F0000EB4000CEE77E
:101DE800F5013FF5D1AE8A427FF4CEAEA26822F06B
:101DF800E0723A4342F08072A260C5E636023FF5CF
:101E0800C3AE8A427FF4C0AEA268184922F0E072DD
:101E18003A4342F40002A2600A6815499209A1FBFC
:101E28000212920952000192019A002A3FF4ACAEC4
:101E3800019A013A0192019A002AF9D1A4E600BF59
:101E4800FFFF0F000000FF47002002400023024070
:101E5800002102400010005C006302580060025834
:101E6800000084CB000052C70000B8CF5405002002
:101E7800632D3E0503689A68D20701D50020704794
:101E88009968234A114270B5044609D0636D012050
:101E980043F010036365A36D43F00103A36570BDB0
:101EA80099681C4A0A4042F001029A6009F0D4FA83
:101EB8002368194A0546934221D002F5807293425D
:101EC8001DD002F1C05202F584429268114E0AE018
:101ED8009A68324042F001029A6009F0BDFA401B4C
:101EE8000228D3D823681A68D2070FD49A68D10772
:101EF800EED509F0B1FA401B0228F3D9C6E7074A24
:101F08009268D006E2D0064A9342DFD1002070BD25
:101F18003F000080C0FFFF7F0020024000230240F6
:101F28000021024038B503689A68910702D59B687A
:101F3800002038BD9A68D207FAD59A68044602F09C
:101F48000D02012A09D0636D012043F01003636577
:101F5800A36D43F00103A36538BD98680321094ABE
:101F6800024042F002029A60196009F075FA0546CB
:101F780023689B68DB07DBD509F06EFA401B022853
:101F8800F6D9E0E7C0FFFF7F38B5554A0446036835
:101F9800934224D002F58072934220D0514B9B6823
:101FA80013F4403F20D004F08FFB63680546B3F577
:101FB800003F75D0B3F5403F7AD0B3F5803F6FD07E
:101FC80009F062FA41F2030398422CD8464A236882
:101FD800954248D99A6842F480729A6038BD434B5A
:101FE8009B6813F4403FDED14FF4002005F0DCFC81
:101FF80063680546B3F5101F58D027D8B3F5E01F1E
:1020080052D057D8B3F5801F08D061D8B3F5002F48
:1020180004D023F40022B2F5802FD1D19B0C5B00B1
:10202800B5FBF3F5CCE7324A2368954226D9314A05
:1020380031492A448A422CD9304A31492A448A42B1
:102048003FD99A6842F440729A6038BDB3F5201FB0
:1020580035D0B3F5301FB3D109F016FA41F20303B6
:10206800984205D823689A6822F480729A6038BD2D
:102078001F4B2A0AB3EB152F05D323689A6822F45D
:1020880040729A6038BD1B4B1B4913448B4223682E
:1020980017D89A6822F4407242F480729A6038BD68
:1020A8001B0CB5FBF3F58BE7050989E7850987E77D
:1020B800850885E7B3F5001F82D1450980E7C50982
:1020C8007EE79A6822F4407242F400729A6038BD42
:1020D800B3F5A01FA2D0B3F5C01F9FD070E700BF13
:1020E8000020024000630258002D31010023024005
:1020F800105E5F00EFA1A0FF0F5E5F00DF4341FFAE
:102108001FBCBE0030B5002383B00193002800F047
:10211800A880456D0446002D00F0A98022689368C8
:10212800990003D59168704B0B4093609368DB006E
:1021380015D46E4B90686E491B6801406D489B0929
:1021480041F08051A0FB030391609B090193019B1F
:102158002BB1019B013B0193019B002BF9D19368A3
:10216800DD0000F18280636D012543F01003636593
:10217800A36D2B43A365936813F0040F636D6CD1B3
:10218800D8066AD4636D23F4817343F00203636550
:102198009368D9070CD4584B9A4200F0818003F514
:1021A80080739A427CD0554B9B68D90740F189804F
:1021B80009F06AF941F20303A1689842237F5CD8C9
:1021C80094F815C01A04206B42EA4C3202430A43C1
:1021D800012B03D1236A013B42EA4342636A23B1DC
:1021E80003F47873A16A0B431A4323684449D868F7
:1021F80001401143D9609A6812F0040F9A681CD103
:1022080012071AD4D8683F4A217D024042EA813237
:10221800E16A0A43DA6094F83820012A53D01A692F
:1022280022F001021A611A692046616B22F070429D
:102238000A431A61FFF7A8FE2368E268012A27D03B
:102248001A6B22F00F021A63636D284623F003030A
:1022580043F00103636503B030BD636D43F01003C1
:1022680063650125284603B030BD002583E708F0E3
:10227800EBFEA56584F8505050E71029A0D1617D88
:102288001A0442EA4132216B0A4342F01C029FE7DA
:10229800196BA26921F00F01013A0A431A63D3E7C7
:1022A800154A194B92689B68DB0781D4D0073FF524
:1022B8007FAF164A9368616823F47C130B439360DD
:1022C80076E7134AF6E7D4E9102118690A43114959
:1022D80001400A43A16C0A43E16B42EA014242F021
:1022E80001021A619FE700BFC0FFFF5F540500208D
:1022F800C0FFFF6F632D3E050020024000600258BA
:1023080003C0F0FFFCBFFFFF002102400023024092
:10231800006302581EF800FCF0B5002383B0019357
:1023280090F85030012B40D0012304460E46154644
:1023380080F85030FFF7F6FDE8B9676D05F0804288
:102348001B4B06F4803125683B4043F0020363656C
:10235800184BAE68334013430B4343F00043AB6064
:10236800AB68154A002B0FDB636D23F0030343F0C2
:102378000103636503E0636D43F0100363650023A5
:1023880084F8503003B0F0BD019B01330193019BE9
:102398009342E5D9636D0022012023F0120384F8EB
:1023A800502043F010036365ECE7022003B0F0BD52
:1023B800FDEEFFFFC0FFFE3FFF955A552DE9F043A4
:1023C800D0F800909BB0D9F8085015F0040516D144
:1023D80090F850C00446BCF1010F10D0294E4FF0C0
:1023E800010CB14580F850C00DD0436D604684F8AB
:1023F800505043F0200363651BB0BDE8F083022012
:102408001BB0BDE8F083204D0F4690460195FFF7BD
:1024180031FD28B1002384F850301BB0BDE8F083AB
:1024280001A8FFF727FD0028F4D1616D174A184B62
:102438000A40266842F480724E456265A065E06CE9
:10244800C363144B0364144BC36418D0AE4216D054
:1024580012491C2543463A460C313560002584F85C
:102468005050756845F01005756000F0EFFB226864
:102478000B4B91680B4043F004039360C0E7094994
:10248800E7E700BF0020024000210240FEF0FFFF06
:10249800CD170000C117000039180000006302586A
:1024A800C0FFFF7F0023024090F85020012A36D059
:1024B80003460120F0B41A68244C83F85000A24265
:1024C80008D05A6D002142F0200283F850105A6556
:1024D800F0BC70471E48846864070AD592685A6D34
:1024E800012042F020025A65002283F85020F0BCF7
:1024F800704794686607F2D40C6894B915498C68DB
:1025080024F440448C6094688268D50705D4E207B7
:1025180003D48868104A02408A600020E4E7022059
:1025280070470C4E4F68B56825F440453D43B5608B
:1025380095688268D707F0D4E807EED48A68B0684F
:102548001443054A02401443B460E6E70020024001
:102558000021024000230240E0F0FFFF06494FF649
:10256800FF0C0002054BCA6800F4E06002EA0C02A6
:1025780010430343CB60704700ED00E00000FA050C
:102588001A4BDB68C3F3022300B5C3F1070E03F14E
:10259800040CBEF1040F28BF4FF0040EBCF1060F67
:1025A8001AD9A3F1030C4FF0FF3303FA0CF322EA14
:1025B80003024FF0FF33002803FA0EF321EA030366
:1025C80003FA0CF343EA02034FEA0313DBB206DB18
:1025D800074A13545DF804FB00229446E9E700F02B
:1025E8000F00044A13545DF804FB00BF00ED00E03F
:1025F80000E400E014ED00E0002807DB00F01F0114
:1026080001234009024A8B4042F82030704700BF3E
:1026180000E100E000280CDB4309012200F01F0064
:1026280004492033824041F82320BFF34F8FBFF382
:102638006F8F704700E100E0431EB3F1807F01D344
:10264800012070474FF0E022002005494FF0F00CC0
:102658005361072381F823C090611361704700BF5D
:1026680000ED00E0BFF35F8F044B00215A6A22F4AB
:1026780080325A62C3F89410704700BF00ED00E042
:10268800064B40F00100C3F894005A6A42F48032C5
:102698005A62BFF34F8FBFF36F8F704700ED00E0B2
:1026A800174A4378C2F89830017821B3436800B5D7
:1026B800C2F89C30C37A90F80CC01B0690F80FE063
:1026C80043EA0C7390F80AC00B43817B43EACC437E
:1026D80090F80DC043EA8C4390F809C043EA41439F
:1026E800017A43EA0E4343EA0C2343EA4103C2F862
:1026F800A0305DF804FBC2F89C10C2F8A010704727
:1027080000ED00E0704700BF08B5FFF7FBFF08BD0C
:102718003649024603688B4233D01831591AB1FA48
:1027280081F1490969BB324883423ED0183083425F
:102738003ED01830834234D0183083423BD0183012
:1027480083423ED0183083422AD000F55670834227
:1027580035D028498B4231D018318B4234D01831CA
:102768008B4234D018318B4234D018318B4234D05C
:1027780018318B4234D018318B4234D023F0FF000B
:1027880011E0DBB21C491D48103BA1FB031310B438
:102798001B091B4CE15C5DF8044BC2E9160170474C
:1027A80016211848D1659065704710211348F9E73C
:1027B80016211248F6E706211248F3E706211248C7
:1027C800F0E710210F48EDE710210F48EAE716213E
:1027D8000D48E7E700210D48E4E706210B48E1E74B
:1027E80010210A48DEE716210848DBE710000240FE
:1027F8004000024028040240ABAAAAAA00000240F6
:10280800B09C032404000240000402400404024077
:102818000268284B284930B4284D294CAA4218BFD1
:102828009A420CBF012300238A4208BF43F00103E8
:102838002831A24208BF43F0010328348A4208BF66
:1028480043F001032831A24208BF43F001038A4242
:1028580008BF43F00103D1B213B91A4B9A4211D100
:10286800A1F10803184C194A0121A4FB0343184C91
:102878001D0902EB1313A9409B008166C0E91834B7
:1028880030BC7047A1F110031249134C1144A4FB4A
:102898000343A8294FEA131308D903F01F040F4A6A
:1028A80001211A44A1400E4C9300E6E708331C4668
:1028B800F5E700BF08540258305402581C54025817
:1028C8004454025894540258CDCCCCCC00960016EF
:1028D80080580258F0FBFDBFABAAAAAA00820010DC
:1028E8008008024070B5054608F0B6FD002D00F0DE
:1028F800A9802B680446904A90498B4218BF93429E
:1029080001F118010CBF012200228B4208BF42F0DE
:10291800010218318B4208BF42F0010218318B4284
:1029280008BF42F0010218318B4208BF42F0010291
:1029380018318B4208BF42F0010218318B4208BFA0
:1029480042F0010201F556718B4208BF42F00102C4
:1029580018318B4208BF42F0010218318B4208BF80
:1029680042F0010218318B4208BF42F001021831CF
:102978008B4208BF42F0010218318B4208BF42F077
:10298800010218318B4208BF42F001021AB96C4AA1
:10299800934240F0E3800222002185F8352085F833
:1029A80034101A6822F001021A6005E008F054FD9C
:1029B800031B052B41D82B681A68D107F6D4D5E933
:1029C800022429692243A8691C680A4369690A43E1
:1029D800E96902430A435B4921402C6A22430A43BE
:1029E800696A042930D01A605A6922F00702114333
:1029F80059612846FFF78CFEEA6D3F2302F01F025B
:102A0800934083602846FFF703FFAB68802B6ED0A6
:102A18006B68A86ED9B2013BD5E91842072B216033
:102A280050602ED90023C5E91B336B6700230122B0
:102A38006B65184685F8352070BD202203236A652A
:102A480085F83530012070BDD5E90B41214311438C
:102A5800AA6A1960596921F00701114341F004017C
:102A6800002CC5D000284AD1012A5FD032F00202DA
:102A7800BED1E201BCD5402201236A6585F8353014
:102A8800E0E72A68481E304B304CA24218BF9A42F1
:102A980004F114040CBF01230023A24208BF43F031
:102AA80001031434A24208BF43F001031434A242C4
:102AB80008BF43F001031434A24208BF43F00103E6
:102AC8001434A24208BF43F001031BB9204B9A42B9
:102AD80040F09E801F4A204C0A44920001230021A6
:102AE8008340C5E91B246B67116063609EE7002380
:102AF800A96ED5E918026B600360516092E7B0F5E2
:102B0800005F04D0022AB6D9032AB2D070E7032A9C
:102B18003FF66EAF01A050F822F000BFE727000093
:102B2800E3270000E72700009D280000B4F1C07FDC
:102B38007FF45EAF9FE700BF10000240280002400C
:102B4800B80402403F8010FE085402581C54025832
:102B5800945402583F96001640590258334A344854
:102B68003449834218BF934200F128000CBF012268
:102B780000228B4208BF42F001022831834208BF7D
:102B880042F0010228308B4208BF42F0010228318E
:102B9800834208BF42F001028B4208BF42F00102A3
:102BA80012B9254A93423AD100200221AA6885F831
:102BB800340085F83510402A1C686FF310142CD0A7
:102BC800A2F18002B2FA82F252099103EE69D5E9C4
:102BD800032010436A691043AA691043174A304317
:102BE8002E6A1A4444EA161444EAD00001431448F1
:102BF800A0FB02022846196013099B00EB65FFF74A
:102C080087FDE96D012201F01F018A404260F9E663
:102C18000C4A0D4C0A44920060E71021D6E7402286
:102C280003236A6585F835300CE700BF085402585D
:102C38001C5402583054025894540258F8ABFDA75B
:102C4800CDCCCCCC3F82001040090240002800F0D7
:102C5800D3802DE9F04F90F8344083B0012C00F078
:102C6800C780012480F8344090F83540012C09D001
:102C780000224FF4006380F834204365012003B03C
:102C8800BDE8F08F02248C4D8C4E80F8354000242E
:102C98008B4F44650468DFF83492B44218BFAC42E5
:102CA80006F11806D0F858E00CBF01250025B442FB
:102CB80008BF45F0010506F55676B44208BF45F051
:102CC80001051836B44208BF45F001051836B4426C
:102CD80008BF45F001051836B44208BF45F00105A4
:102CE8001836B44208BF45F001051836B44208BF8B
:102CF80045F00105A6F58666BC4218BFB44206F544
:102D08008966C76E0CBF4FF001084FF00008B44247
:102D180008BF45F00105A6F58666B44208BF48F02D
:102D2800010806F58966B44208BF45F00105A6F515
:102D38009266B44218BF4C4545EA080C01950CBF91
:102D480001250025D0E919AB009502D0BCF1000F90
:102D580054D0D4F8009029F00109C4F80090CAF8BA
:102D680004B03FB1D0E91C566E60009D15B9BCF1A6
:102D7800000F4DD0C56D4FF03F0905F01F0A09FA45
:102D88000AF9CEF80890D4F800E02EF4802EC4F8A2
:102D980000E063608368402B27D0A160E260009B5D
:102DA80013B9B8F1000F7ED0236823F01E0343F057
:102DB80016032360036C1BB1236843F008032360E8
:102DC800036E1A68D20303D51A6842F480721A6037
:102DD8001FB13B6843F480733B602368002043F0D5
:102DE8000103236003B0BDE8F08FA260E160D6E77D
:102DF800022003B0BDE8F08F01207047256825F058
:102E080001052560CAF804B017B1D0E91C566E60F8
:102E18002C4DDFF8BC80444518BFAC4208F11408BB
:102E28000CBF01250025444508BF45F0010508F100
:102E38001408444508BF45F0010508F11408444545
:102E480008BF45F0010508F11408444508BF45F0DE
:102E5800010508F11408444508BF45F0010515B9F6
:102E6800194DAC420DD1C56D05F01F08012505FAB5
:102E780008F5CEF8045063608368402B18D0A16031
:102E8800E2602268016C22F00E02036E42F00A0230
:102E98002260002995D0226842F0040222601A6854
:102EA800D10391D494E7019B002B7FF47DAFE8E731
:102EB800A260E160E5E700BF88000240A000024090
:102EC800400002400854025894540258100002402E
:102ED8001C540258002862D038B590F83530022BBF
:102EE80059D10268444B454C4549A24218BF9A4201
:102EF80004F130040CBF012300238A4208BF43F0C9
:102F080001033031A24208BF43F0010330348A4242
:102F180008BF43F001033031A24208BF43F0010368
:102F280030348A4208BF43F0010301F55C71A242C4
:102F380008BF43F0010304F55C748A4208BF43F0FC
:102F480001033031A24208BF43F0010330348A4202
:102F580008BF43F001033031A24208BF43F0010328
:102F680030348A4208BF43F001033031A24208BF1F
:102F780043F001038A4208BF43F0010313B9214B10
:102F88009A420ED1042380F83530136823F00103E8
:102F98001360002038BD80234365012038BD01201F
:102FA80070471368046E23F00E03C16D856D1360BE
:102FB80001F01F01136823F0010313600123226845
:102FC8008B4022F4807222606B60C36ED0E91921B5
:102FD800516033B11A68D0E91C1422F480721A6067
:102FE8004C6000210122036D80F8341080F83520F0
:102FF800002BCED09847CCE71000024028000240B2
:1030080040000240B8040240F0B50022944B83B05F
:10301800856D07461E680192924B026892482C689B
:10302800824218BF9A4200F1180029680CBF012398
:103038000023824208BF43F001031830824208BFD0
:1030480043F001031830824208BF43F001031830EF
:10305800824208BF43F001031830824208BF43F0A0
:1030680001031830824208BF43F0010300F556708F
:10307800824208BF43F001031830824208BF43F080
:1030880001031830824208BF43F00103183082421E
:1030980008BF43F001031830824208BF43F0010320
:1030A8001830824208BF43F001031830824208BF3B
:1030B80043F001031BB96D4B9A4240F02F81FB6D21
:1030C800082103F01F03994021420BD010684007E4
:1030D80008D5106820F004001060A960796D41F0EF
:1030E8000101796524FA03F1C80709D55169090670
:1030F80006D501219940A960796D41F002017965F1
:1031080004219940214207D01068800704D5A9609E
:10311800796D41F00401796510219940214200F050
:10312800B0801068000740F1AC80A960116811F404
:10313800802F116840F09E80C90503D4116821F0E2
:1031480008011160396C002900F09B8038468847D7
:10315800FB6D202103F01F039940214253D03A68A8
:103168004048414CA24218BF824204F118040CBFE7
:1031780001200020A24208BF40F001001834A242FA
:1031880008BF40F001001834A24208BF40F0010017
:103198001834A24208BF40F001001834A24208BF08
:1031A80040F001001834A24208BF40F0010004F5C5
:1031B8005674A24208BF40F001001834A24208BF6A
:1031C80040F001001834A24208BF40F00100183452
:1031D800A24208BF40F001001834A24208BF40F0E4
:1031E80001001834A24208BF40F001001834A2427E
:1031F80008BF40F00100002847D11C48824244D053
:103208001068800744D47B6D002B70D07B6DDC0781
:103218001ED53A68042187F8351015491368A1FBB3
:10322800066123F00103890A136002E01368D807D6
:1032380004D5019B01338B420193F7D9002387F80A
:1032480034301368DB074CBF0323012387F835307C
:10325800FB6C002B4BD0384603B0BDE8F040184754
:10326800540500201000024028000240B804024023
:10327800B5814E1B08037FF565AFB96C00297FF453
:1032880065AF202199400C42BDD01068C406BAD55C
:10329800A96097F8351004290ED0136813F4802F0D
:1032A800136826D01D0331D5FB6B002BABD03846F5
:1032B80098477B6DDBB1A9E7116821F01601116011
:1032C800516921F080015161396C19B3116821F0FD
:1032D800080111603F22002102FA03F30122AB60CA
:1032E8003B6D87F8341087F83520002BB3D103B035
:1032F800F0BD13F48073D7D1116821F0100111606B
:10330800012287F8343087F83520CDE77B6C002B15
:10331800CDD178E7B96C0029D8D1DBE7404B4148DB
:10332800824218BF9A4200F114000CBF0123002307
:10333800824208BF43F001031430824208BF43F0C1
:1033480001031430824208BF43F001031430824263
:1033580008BF43F001031430824208BF43F0010361
:1033680013B9314B9A42C2D1F86D0424136800F0A6
:103378001F0084400C420BD05E0709D519046C600D
:1033880032D5DA0336D4BB6C002B7FF464AFAEE7DA
:10339800022484400C420BD09E0709D519046C60A6
:1033A8002DD5DA0337D47B6C002B7FF454AF9EE71E
:1033B800082484400C429AD01B0798D51368002132
:1033C80023F00E0313600123FA6C03FA00F068601F
:1033D8007B6587F8341087F83530002A87D038465F
:1033E80003B0BDE8F04010479B0603D4136823F0F0
:1033F800040313603B6C002B7FF42DAF77E713F0C9
:10340800200308D11168012021F00A01116087F812
:10341800343087F83500FB6B002B7FF41CAF66E770
:10342800085402581C54025894540258406D70476E
:103438000B68002B00F0ED81824A90424FF00002A9
:103448002DE9F04F85B000F0F8804FF001084FF0FB
:10345800B04E42E04FEAD20C02F007050F694FF078
:103468000F0A00EB8C0CAD00DCF82090AF400AFA94
:1034780005F529EA05054FF003092F4304F0030574
:10348800CCF820705700D0F800C009FA07F9BD4001
:103498002CEA090C6FEA090B45EA0C0505608D68F2
:1034A80005FA07FCD0F808902409CD6809EA0B0949
:1034B800944005FA07F747EA09078760476827EA4B
:1034C800060634434460C46804EA0B0444EA0C0466
:1034D800C460013233FA02F479D008FA02F616EA27
:1034E8000309F6D04C6824F01005022DB2D057001D
:1034F8004FF0030C05F1FF3AD0F800B00CFA07FCC6
:1035080004F00305BAF1010F2BEA0C0B05FA07F5D5
:1035180045EA0B056FEA0C0B05608D6805FA07FC98
:10352800C0D9C6680BEA060545EA0C05C560E50082
:10353800CFD5454E22F003074FF00F0CD6F8F450C4
:1035480007F1B04745F0020507F58067C6F8F45063
:10355800D6F8F45002F0030605F00205B60003950C
:103568000CFA06FC039DBD6825EA0C0A374DA842F3
:103578005ED0374DA8422DD0DFF8D8C0604500F0A6
:103588004281DFF8D4C0604500F04481DFF8CCC048
:10359800604500F03181DFF8C8C0604500F0418126
:1035A800DFF8C0C0604500F04381DFF8BCC060456B
:1035B80000F04581DFF8B4C060450CBF4FF0090C3E
:1035C8004FF00A0C0CFA06F64AEA060508E005B0C0
:1035D800BDE8F08F4FF0020C0CFA06F64AEA060531
:1035E800BD606FEA0906DEF88050E70354BF354036
:1035F80049EA0505A703CEF88050DEF8845054BF89
:10360800354049EA0505E702CEF88450DEF8005057
:1036180054BF354049EA0505A402CEF80050DEF84B
:10362800045054BF354049EA0505CEF8045050E728
:1036380008FA06F64AEA0605D2E7DFF80CB04FF0BA
:10364800B0467BE0000002580044025800040258CB
:1036580000080258000C02580010025800140258C2
:1036680000180258001C0258002002580024025872
:103678000CF1FF374FEA420ED0F800A004F003081F
:103688000197032708FA0EF807FA0EFC2AEA0C0A33
:103698006FEA0C0C48EA0A08C0F800808F6807FA3D
:1036A8000EF8019F012F40F28180C56805EA0C05DC
:1036B80045EA0805C560E5003BD5DBF8F45022F083
:1036C800030C0F2745F002050CF1B04CCBF8F45071
:1036D8000CF5806CDBF8F45005F002050395039DAA
:1036E80002F00305DCF808E0AD0007FA05F5E7038A
:1036F8002EEA0505CCF808506FEA090CD6F8805078
:1037080077D405EA0C05A703C6F88050D6F884508C
:103718006CD40CEA0505E702C6F88450356862D413
:103728000CEA0505A7023560756859D40CEA050549
:103738007560013233FA02F43FF449AF012404FA08
:1037480002F513EA0509F4D04C6824F0100CBCF11A
:10375800020F8DD102F0070C0F694FEAD20E4FEA23
:103768008C0C00EB8E0E07FA0CF90F27DEF8208080
:1037780007FA0CFC032728EA0C0849EA0808CEF8DF
:1037880020804FEA420ED0F8009004F0030807FAB0
:103798000EFC08FA0EF829EA0C096FEA0C0C48EA44
:1037A8000908C0F800808F6807FA0EF8D0F808906A
:1037B8002409CF6809EA0C09944007FA0EFE4EEA7C
:1037C800090EC0F808E0D0F804E02EEA05052C43FD
:1037D8004460C46804EA0C0444EA0804C460A8E726
:1037E80049EA0505A4E749EA05059BE749EA05050D
:1037F80091E749EA050586E74FF0050C0CFA06F64D
:103808004AEA0605ECE6032505FA06F64AEA06053D
:10381800E6E670474FF0040C0CFA06F64AEA06058D
:10382800DEE64FF0060C0CFA06F64AEA0605D7E67D
:103838004FF0070C0CFA06F64AEA0605D0E64FF0F8
:10384800080C0CFA06F64AEA0605C9E6002900F053
:103858000881894B98422DE9F04F00F09A800023A7
:103868004FF00F094FF0030A4FF0B04601229A407B
:1038780012EA010E77D023F0030503F003047F4F0B
:1038880005F1B045E400B84209FA04F8D5F808C4CF
:1038980005F5806508EA0C0C27D0794FB8426ED040
:1038A800784FB84270D0784FB84263D0DFF8E0B1B3
:1038B800584500F0D180DFF8DCB1584500F0D280DF
:1038C800DFF8D4B1584500F0C280DFF8D0B15845D0
:1038D80000F0CD80DFF8C8B158450CBF4FF0090B98
:1038E8004FF00A0B0BFA04F402E0012707FA04F47C
:1038F800A44517D1AC6824EA0804AC60D6F8804027
:1039080024EA0E04C6F88040D6F8844024EA0E045F
:10391800C6F88440346824EA0E043460746824EAE3
:103928000E0474605D0004684FEAD30C0AFA05F5CA
:1039380000EB8C0C2C43046003F00704DCF820E057
:10394800A40009FA04F42EEA0404CCF820408468A0
:1039580024EA05048460446824EA02024260C268DA
:1039680022EA0502C260013331FA03F27FF47EAF26
:10397800BDE8F08F4FF0040B0BFA04F4B8E74FF0F2
:10398800020B0BFA04F4B3E74FF0030B0BFA04F441
:10399800AEE700224FF0010C3C4F0F254FF0B04628
:1039A8004FF0030E02F003030CFA02F422F00308AE
:1039B800DB0011EA0409B84405FA03F341D0D8F84A
:1039C80008A013EA0A0F19D1D8F808A02AEA0303B5
:1039D800C8F80830D6F8803023EA0903C6F88030E2
:1039E800D6F8843023EA0903C6F88430336823EA1A
:1039F80009033360736823EA090373604FEA4208D6
:103A080003684FEAD2090EFA08F800EB890943EA7D
:103A18000803036002F00703D9F820A09B0005FA09
:103A280003F32AEA0303C9F82030836823EA08036A
:103A38008360436823EA04034360C36823EA0803F6
:103A4800C360013231FA02F3ACD1BDE8F08F4FF018
:103A5800070B0BFA04F44BE74FF0050B0BFA04F4D1
:103A680046E770474FF0060B0BFA04F440E74FF0B7
:103A7800080B0BFA04F43BE7000002580004025854
:103A880000080258000C02580010025800040058A0
:103A98000014025800180258001C0258002002584E
:103AA800002402580369194214BF012000207047FE
:103AB80002B9090481617047436931EA030308BF09
:103AC80009048161704700BF2DE9F04F056885B092
:103AD8000446284608F040F9012802D005B0BDE8A0
:103AE800F08F206808F040F80028F7D0206808F028
:103AF8003BF810F4001F206802D04FF40013436114
:103B080008F032F810F4801F206802D04FF48013B8
:103B1800436108F029F810F0806F206802D04FF058
:103B28008063436108F020F810F0020F206830D15C
:103B380008F01AF8870000F10781206808F014F8E7
:103B4800C60100F1C380206808F00EF8000700F1F4
:103B5800B280206808F008F810F0007F20681BD1B8
:103B680008F002F8C306B9D52568AB6923F010033D
:103B7800AB612E6A06F4F011C6F30A17B1F5802F6F
:103B880002D1002F40F0DA81AB6943F01003AB613A
:103B9800A4E702234361CBE708F0CEF8A268814688
:103BA8002068002A00F08E8005F5A065002640E018
:103BB8005A075BD50423BB60FB6843F00203FB6034
:103BC800BB689B0500F12D81B96811F0010100F077
:103BD800CD8023694BB108EB8802396904EBC20236
:103BE800C1F31201936C5B1AD3644FEA8803012274
:103BF800002003EB080104EBC101886581F85D2012
:103C0800BA6091F83F0010F0FD0F00F08A81032898
:103C180000F02D82984404EBC80898F8503083F0DF
:103C2800010388F85030A268206801362035964292
:103C380048D206F00F0329FA03F3D907F5D55FFA3E
:103C480086F82B6800F5A06A13F4004F4FEA481B6A
:103C58000AEB4817BB68ABD113F004030DD004235B
:103C6800BB60FB6843F00203FB60DEE7BB689B06B2
:103C780040F1E5802023BB60A2E7B96811F0200C71
:103C880000F0F98008EB880C202104EBCC0CB9601B
:103C98009CF83D100129C8D18CF83D3002234146DB
:103CA8008CF85C30FB6843F00203FB6007F078FF98
:103CB800A2682068B9E7204607F0B8FE0823206804
:103CC800436147E74FF00073436149E72668D6F838
:103CD80040340293D6F840340393039B23F02E0319
:103CE8000393029B980707D5029BD90700F18181AE
:103CF800039B43F002030393029B1A0718D5039B07
:103D080043F008030393029B5B0740F17A81A169A2
:103D1800022900F08581E368012B03D14EF6602269
:103D2800C6F80424204607F08FFE204607F082FEDE
:103D38002068029B9F0603D5039B43F0200303934F
:103D4800039BC6F84034FFE6D5F84034204623F0FC
:103D58002E03C5F8403407F071FE0121206808F0F1
:103D68001BF84FF0005320684361E7E6BB689807EB
:103D780040F1B780FB6823F00203FB6008EB88037F
:103D880004EBC30393F85D204FEA8803501E07280D
:103D980024D8DFE800F0292337233004230403EB79
:103DA800080004EBC000836D0133032B96BF19464E
:103DB80004220222816580F85C205AF80B3023F037
:103DC800804343F000434AF80B3002232046414623
:103DD800BB6007F037FEA268206826E7434404EB7F
:103DE800C30393F85C20F0E74344012104EBC303C9
:103DF80083F85C10E9E74344052104EBC30383F827
:103E08005C10E2E74344022204EBC30383F85C201E
:103E18005AF80B3023F0804343F000434AF80B3044
:103E2800D3E7FB684146206843F00203FB6007F0D4
:103E3800B7FE4FF400732068BB60A268F5E6BB6864
:103E4800190700F1AB80BB685A057FF5B9AEFB686E
:103E5800414643F00203FB6007F0A2FE102208EB84
:103E68008803BA60082204EBC30383F85D204FF48B
:103E78008063BB60A4E6BB685B0600F1A280BB68F8
:103E880013F4007340F0D780B968C90700F1FE80C9
:103E9800BB6813F0080340F06F81B968C90640F1A8
:103EA8000A8108EB880204EBC2029365032382F8B7
:103EB8005D3092F83D3043B9282303FB084393F85B
:103EC8003C2012B9012283F83D20FB68414643F0AB
:103ED8000203FB6007F064FE10232068BB60A26841
:103EE800A3E6BB68206813F08003014640F0A98070
:103EF800BA68D20613D508EB880004EBC00090F826
:103F08003F20032A00F04B8112F0FD0204D12369FF
:103F18008265002B00F0638110230846BB60A2680D
:103F280083E6FA684146206842F002020193FA608B
:103F380007F036FE1022019BBA606BE606F00F060A
:103F480006EB860804EBC808D8F8441000293FF4AB
:103F58001BAE284605F5A0653A4607F00DFED8F8D1
:103F6800443005EB46123B441169D8F84C20C8F898
:103F7800443073013A44C8F84C20AB4A0A405AB15D
:103F8800EA5822F0804242F00042EA5098F8503055
:103F980083F0010388F850302568F5E5FB680522B1
:103FA800414643F00203FB6008EB880304EBC303BC
:103FB80083F85D201023BB600823BB6007F0F0FD89
:103FC800FEE508EB88030422414604EBC30383F8AB
:103FD8005D200122C3F858C083F83D20FB6843F0F8
:103FE8000203FB6007F0DCFD40232068BB60A26889
:103FF8001BE6B369204623F00053B36107F01AFDAE
:1040080076E6204607F024FDD6F84034206823F0F1
:104018002E03C6F84034836943F00053836188E671
:10402800029B206803F4C023B3F5802F18BF012139
:1040380007F0B2FE76E6FB68414643F00203FB60F8
:10404800F5E6FB6808EB8802414604EBC20243F040
:104058000203FB60936D01339365062382F85D309C
:1040680007F09EFD80232068BB60A268DDE55AF852
:104078000B00019340F000504AF80B00204681F8ED
:104088005C20414607F0DEFC019BC3E5FA68414627
:1040980042F0020C08EB880204EBC208C8F858305A
:1040A800C7F80CC007F07CFD0123BB6088F85D30C1
:1040B800A2682068B9E5BB6819067ED4B96811F40E
:1040C800806140F09C80BB689B077FF5AEADFB68C4
:1040D80023F00203FB60282303FB084393F85D30B9
:1040E800013B072B0BD8DFE803F0350A0404181F3F
:1040F8000A1F2823022203FB084383F85C20282395
:1041080002222046414603FB0843BA6093F85C202C
:1041180007F098FCA268206887E52823052203FB9E
:10412800084383F85C20EAE7282202FB0842936DE3
:104138000133032B96BF194604230223916582F8A5
:104148005C305AF80B3023F0804343F000434AF8C0
:104158000B30D4E72823012203FB084383F85C20B3
:1041680093F83F20023A012AC9D893F8512082F0E7
:10417800010283F85120C2E70823414608EB88086A
:10418800BB60FB6843F00203FB6007F009FD0522F2
:1041980004EBC80383F85D20A268206845E5FA6847
:1041A8000846282142F0020201FB08418B6541467E
:1041B800FA6007F0F5FC2168AEE6FB68414643F07B
:1041C8000203FB6007F0ECFC2823062203FB0843EC
:1041D80083F85D2080232068BB60A26825E528233A
:1041E80003220846414603FB084383F85D20FB6829
:1041F80043F00203FB6007F0D3FC21688CE6FB6800
:10420800414643F00203FB6007F0CAFC1022282352
:10421800BA604FF4806203FB0843BA60082283F84F
:104228005D20A268206800E50000F81F90F8B83209
:10423800012B0CD0012310B50446006884F8B8326D
:1042480007F082FD0023184684F8B83210BD02201A
:10425800704700BF4B1C70B504462ED101688B69AE
:104268009E0728D48B69DD06F9D58B699A06FCD59B
:1042780020231022CA61CB618B69980701D50023DE
:104288008B628B69DA0703D48B6943F001038B6176
:104298004B6820201D4D00222B404B60636C43F07F
:1042A8000403636484F8410084F842200023012059
:1042B80084F8403070BD002070BD0D461646216858
:1042C8008B699B07F7D48B69D80610D407F0C4F81C
:1042D800831BAB4201D8002DF1D1636C2021002251
:1042E8000B43636484F8411084F84220DEE78B694D
:1042F8009B06BDD407F0B0F8831B9D42EDD3002D7B
:10430800EBD021688B699B06F4D5B1E700E800FE85
:1043180070B504460D461646226893699B0646D436
:104328009369DB0632D5681C2CD193699906FCD5B4
:1043380020231021D161D3619369980701D5002307
:1043480093629369D90703D4936943F00103936196
:1043580053682020174D00212B405360636C43F0B5
:104368000403636484F8410084F8421000230120A8
:1043780084F8403070BD07F06FF8831B9D420CD362
:104388005DB1226893699B06F5D5D1E707F064F81B
:10439800801BA84201D8002DBED1636C20210022C9
:1043A8000B43636484F8411084F84220DEE7002060
:1043B80070BD00BF00E800FE00284ED010B590F890
:1043C8004130044603F0FF02002B41D0236824212A
:1043D800626884F84110196822F07062E06821F080
:1043E8000101012819601A619A68A16822F4004243
:1043F8009A6029D041F404410228996002D14FF40F
:1044080000625A6058684FF0200C15492269014330
:104418005960D96821F40041D960D4E90501024303
:1044280042EA0122D4E90710DA600022014310466B
:104438001960196841F001011960626484F841C08B
:10444800226384F8422010BD41F400419960D9E705
:1044580080F8402006F06AFCB8E70120704700BFEA
:10446800008000022DE9F047994690F84130BDF8E8
:1044780024A0202B40F0A980089B0446002B00F0C4
:104488009E80BAF1000F00F09A8090F84030012B1E
:1044980000F09B8001230F46904680F8403006F0DC
:1044A800DBFF064605E006F0D7FF801B192800F25F
:1044B8009C8023689D6915F40045F4D1089AC7F3D8
:1044C80009079449204662622122656384F84120E5
:1044D800402284F842206564A4F82AA05A680A4059
:1044E8005FFA89F142EA01428B493A431143324665
:1044F80059600A99FFF7AEFE002872D1B9F1010F91
:1045080022680AD04FEA18230A9920469362324655
:10451800FFF7A0FE002864D122685FFA88F393624F
:104528000A9B013340F0C08093691806FCD5638D5F
:104538009BB2FF2B40F2AA80FF237849238553685A
:104548000B4077493B43194351600A9B013305D01F
:1045580078E0638D9BB2002B00F0B78032464FF0B5
:10456800FF312046FFF776FE00282BD1606A2168CC
:1045780010F8012B238D8A62628D013B6062013A3B
:104588009BB292B223856285628D92B2002BE0D1F4
:10459800002ADED08B691A06FCD5638D9BB2FF2BEF
:1045A8006AD8638D5D489BB24A682385DBB20240B6
:1045B80047EA0343134343F000734B60C9E74FF4E2
:1045C800007363640120BDE8F0870220BDE8F0872E
:1045D800636C202100220B43636484F8411084F843
:1045E8004220002384F84030ECE7636C202100224D
:1045F8000B4384F84020636484F8411084F8422017
:10460800E0E7DAB18B691B060BD406F025FF0A9A9E
:10461800831B9A42E9D3002AE7D021688B691B06DD
:10462800F3D5638D9BB2FF2B65D9FF233B4A2385C6
:104638004B6813403A4A3B431A434A60638D9BB226
:10464800002B42D032460A992046FFF703FE002885
:10465800B8D1626A216812F8010B238D8862626200
:10466800013B628D9BB2013A238592B26285628DCD
:1046780092B2002BC5D0E1E7FF23284A23854B6877
:104688001340274A3B431A434A6062E7638D234835
:104698009BB2D9B22385536803403B4343EA0143A5
:1046A80043F00073536050E7936919063FF53FAF35
:1046B80006F0D2FE0A9A831B9A4289D3002A87D031
:1046C800226893691906F3D531E732460A992046DC
:1046D800FFF71EFE00287FF475AF23682021114DD7
:1046E800D9615A682A405A6084F8411084F8400019
:1046F80084F8420067E7638D08489BB2DAB22385E5
:104708004B6803403B4343EA024343F000734B606A
:1047180094E700BF009800FC00200081009C00FC8A
:104728000000FF0100E800FE2DE9F8431F4690F85D
:104738004130BDF82490202B40F08C80089B044623
:10474800002B00F08180B9F1000F7DD090F8403047
:10475800012B7FD001230E46904680F8403006F0AA
:104768007BFE054605E006F077FE401B192800F29F
:10477800A2802368986910F40040F4D1089AC6F31F
:104788000906884962622222606384F84120402237
:1047980084F8422060642046A4F82A905A680A40A7
:1047A800F9B242EA01428049324311432A4659602C
:1047B8000A99FFF74FFD002840F09280012F2168E9
:1047C8000BD04FEA18232A4620468B620A99FFF736
:1047D80041FD002840F0848021685FFA88F38B62ED
:1047E8000A9B013340F0C7808B695A06FCD5638D5C
:1047F8009BB2FF2B40F2B180FF236A4A23854B68A6
:1048080013406A4A33431A434A600A9B013324D14E
:10481800606A8B695F07FCD54B6A0370628D238DD4
:10482800013A606A013B92B201309BB26285628DA7
:10483800606292B223850BB9002A55D1638D9BB271
:10484800002B67D02168E4E74FF40073636401200C
:10485800BDE8F8830220BDE8F8838B6958070AD4BD
:1048680006F0FAFD0A9A431B9A4224D31AB3216828
:104878008B695807F4D54A6A636A1A70628D238D6A
:10488800013A606A013B92B201309BB26285628D47
:10489800606292B22385002B7ED1002A7CD02168E9
:1048A8008B691B0624D406F0D7FD0A9A431B9A424B
:1048B80001D3002AF3D1636C202100220B4384F832
:1048C8004020636484F8411084F84220BFE7636C99
:1048D800202100220B43636484F8411084F84220AD
:1048E800002384F84030B2E721688B691A06FCD5AA
:1048F800638D9BB2FF2B22D9FF232D4A23854B685A
:1049080013402C4A33431A434A60638D9BB2002BF1
:104918007FF47BAF2A460A992046FFF7F9FC002866
:1049280095D123682021244DD9615A682A405A60BC
:1049380084F8411084F8400084F8420088E7638DC9
:104948001B489BB2DAB223854B680340334343EAE2
:10495800024343F000734B60D7E7638D11489BB265
:10496800DAB223854B680340334343EA0243134AD0
:104978001A434A6049E78B695B063FF538AF06F092
:104988006BFD0A9A431B9A42A1D3002A9FD0216843
:104998008B695B06F3D52AE7638D9BB2002B7FF406
:1049A80066AFB7E7009800FC002000800024FF8174
:1049B800009C00FC0000FF0100E800FE00240082CB
:1049C8000268436B9169126803B11847704700BFCA
:1049D80090F84100704700BF90F84120202A23D169
:1049E8005FFA82FC90F840200346012A1CD0026836
:1049F800242000B583F841004FF0000E106820F025
:104A080001001060106820F48050106010680143A5
:104A180070461160116841F00101116083F841C0CE
:104A280083F840E05DF804FB0220704790F84120CD
:104A3800202A22D1034600B55FFA82FE90F8402072
:104A4800012A1CD0026824204FF0000C83F8410092
:104A5800106820F001001060106820F4706040EACF
:104A6800012160461160116841F00101116083F86D
:104A780041E083F840C05DF804FB02207047022043
:104A88005DF804FB10B345F2555238B5D0E9003152
:104A980004464CF6CC4018601A60A26859609A60C7
:104AA80006F0DAFC054604E006F0D6FC431B302B82
:104AB8000AD82368DA68002AF6D11969E2689142AF
:104AC80006D01A61002038BD032038BD0120704788
:104AD8004AF6AA221A60F5E703464AF6AA220020F7
:104AE8001B681A60704700BF03682DE9F04F87B054
:104AF80004461846029307F02FF910B107B0BDE835
:104B0800F08F0546206807F02FF80028F6D02068B7
:104B180007F02AF810F0020F206803D0436903F069
:104B28000203436107F020F8000300F1A5814FF06C
:104B3800000A206807F018F810F4802F206840F069
:104B4800F38007F011F8002879DB206807F00CF8EB
:104B5800000568D4206807F007F8020114D5226818
:104B6800536903F00063536194F8F433002B40F069
:104B7800EB810121204684F8F413536DC3F38303BA
:104B8800C4F8F83300F036FC206806F0EDFFC304E3
:104B980000F18280206806F0E7FF10F4005F2068CB
:104BA80063D106F0E1FF10F0100F206815D083697B
:104BB80023F010038361029B1D6A05F4F01305F0CE
:104BC8000F06B3F5802F00F03582B3F5402F00F0C3
:104BD800D181836943F01003836106F0C5FF07079D
:104BE80000F1A981206806F0BFFFC60200F1988194
:104BF800206806F0B9FF850200F18781206806F079
:104C0800B3FF400000F17881206806F0ADFF41074E
:104C18007FF574AF23685D686A0700F12C825A68D3
:104C28002A435A606AE7029BD3F80838D90700F18B
:104C38001E822068436903F4006343618BE7029B8B
:104C480003F50062D3F8043823F00103536094F8A5
:104C5800F433012B00F08781204606F0D3FE20684C
:104C6800436903F00043436170E707F0A5F8206843
:104C780007F086F82568E06001F026FD227B0146F2
:104C8800284607F095F8204606F08EFE206843690E
:104C980003F40053436184E7029B1021206803F565
:104CA8000066736823F00103736007F009F8606811
:104CB800B0B1029B4FF67F3103F51063996001355F
:104CC8001A682033854222F4001243F8202CC3F8D6
:104CD800E811D3F8E02122F40012C3F8E021EDD165
:104CE800F36943F00113F361236B002B40F030812B
:104CF800726942F22B0313437361336943F00B0368
:104D08003361029904F571722068D1F8003823F4F0
:104D1800FE63C1F80038217C06F032FF2068436941
:104D280003F48053436136E706F02EFF824620687D
:104D3800BAF1000F3FF405AF029B27464FF0000B76
:104D4800D04603F51069CDE903A509E05FEA5808E4
:104D58000BF1010B07F11C0709F1200900F01D8177
:104D680018F0010FF2D05FFA8BFA514606F0F0FF07
:104D7800C50706461FD5012102980BF00F02D0F88F
:104D8800343801FA02F223EA0203C0F834382369FE
:104D9800C9F808108B4203D1D7E911231344BB6427
:104DA8005146204606F0F2FD2369012B03D1BBF1E1
:104DB800000F00F0AB812568300702D50823C9F839
:104DC8000830F10602D51023C9F80830720602D55A
:104DD8004023C9F80830B30702D50223C9F80830C0
:104DE80036062846B2D5D7E91463B342AED8A6EB47
:104DF800030E7A6C05F5106C96450CEB4B1C28BF1E
:104E08009646DCF818100EF103021FFA81FEBEEB7D
:104E1800920FC0F07181CDF814B0E3461AE07B6CB4
:104E28005246B96C28469E4228BF1E46237C0093F2
:104E3800B3B206F09DFFBB6CDBF81820334492B286
:104E4800BB647B6D33440336B2EB960F7B65C0F0D1
:104E58004F813E6D9E42A6EB0306E0D8DDF814B004
:104E680020680BF00F0301229A40D5F8343823EA62
:104E78000203C5F8343869E7206806F045FF814623
:104E880000283FF454AE029B0646A3464FF00008A4
:104E980003F530672068CDE9039507E0760808F147
:104EA800010807F120070BF11C0B7DD0F107F5D5A0
:104EB8005FFA88F5294606F0FFFE10F0010F8146DB
:104EC80079D100F00803002B40F0A280206819F087
:104ED800100F01D01023BB6019F0200F05D02169F5
:104EE800012900F00D812023BB6019F4005FD5D0A3
:104EF8004FF40053BB60D1E7204606F08FFD2068D1
:104F0800436903F0804343617FE620465FFA8AF1F4
:104F180006F07CFD2068436903F4001343616EE6E4
:104F280020465FFA8AF106F075FD2068436903F4AC
:104F3800801343615DE6204606F032FD2068436930
:104F480003F0080343614EE6204606F043FD1BE6E6
:104F5800D6F8843043F00B03C6F88430736C43F002
:104F68000B037364CDE60021204684F8F41300F0A7
:104F780041FA74E6C6EBC606082204F57171029878
:104F880006F0FAFDC5F30A1304EB86022068D2F88E
:104F980014120B44C2F814321BE6DDE903A5BAFA71
:104FA8008AF3C3F1200ACCE5DDE90395B9FA89FB58
:104FB800CBF1200ABEE520680123226900F5306A9A
:104FC800BB60012AD0F840E00AEB481A09F0080350
:104FD800DAF8081072D0734A964568D10A0461D588
:104FE8004FF40042CAF80820002B3FF470AF036C5E
:104FF800DAF808106B4A934242D02046059306F02F
:10500800B5FC694A059B934243D80823BB605DE71A
:105018002368226903F5306A1B6C012A0AEB481AD7
:10502800DAF80810E6D1604A934229D8204606F0FB
:105038009DFCEAE747F6F0731D423FF4CAADC6EBA4
:10504800C606C5F30A12029804EB86061546D6F87A
:10505800081206F091FDD6F8083220682B44C6F8ED
:105068000832D6F814322B44C6F81432B1E520467B
:1050780006F0B0FCDDE5204606F0D4FC2368CEE55A
:105088000B044FD54FF400432046CAF8083006F009
:105098006DFC21690129B8D104F57172206806F008
:1050A8006FFDB2E78A0602D52022CAF808202946F1
:1050B8002046059306F060FC059B04E70A0735D5F2
:1050C800394A964505D9090403D54FF40042CAF870
:1050D80008202046059306F049FC04F57172012169
:1050E800206806F04DFD0822059BCAF80820EAE66C
:1050F800DDF814B03E6D20689E423FF627AEB0E65C
:1051080004F5717206F03CFD2068ECE6236D256815
:10511800002B7FF451AE284604F57172012106F088
:105128002FFD48E6204606F021FCB2E78A0609D59D
:105138002022CAF80820002B3FF4C9AE036CDAF825
:10514800081070E7184A964506D9090404D54FF4A3
:105158000042CAF80820EEE7DAF810202946DBF802
:105168000402C2F312020593821ACBF81422DBF868
:10517800082202442046CBF8082206F0FDFB059BD6
:10518800B8F1000F7FF49FAED4F81022002A7FF404
:105198009AAE04F571720121206806F0F1FC059BB6
:1051A80091E600BF0A31544F0A30544F90F8BC239F
:1051B800012A0ED0012210B50446006884F8381080
:1051C80084F8BC2306F0BCFD0023184684F8BC33E1
:1051D80010BD0220704700BF10B501F00F0E090680
:1051E8000446CEEBCE0C4FEA8C0C25D40CF5FE71A0
:1051F8004FF0000C0144CEEBCE0004EB800080F8A9
:10520800FDC18A604A7881F800E0CB700AB1A1F844
:1052180006E0022B01D100230B7194F8BC33012B5B
:1052280016D00123206884F8BC3306F099FD0023CA
:10523800184684F8BC3310BD0CF13C014FF0010C4A
:105248000144CEEBCE0004EB800080F83DC0D8E7E7
:10525800022010BD10B501F00F041C21C4EBC40CD2
:1052680001FB040100EB8C0C01F5FE71CCF8103247
:105278000023CCF808228CF8FC41CCF814328CF8C6
:10528800FD3103690068012B08BFCCF80C22DAB2A3
:105298001CB906F001FD002010BD06F005FD002038
:1052A80010BD00BF10B501F00F041C21C4EBC40CE5
:1052B80001FB040100EB8C0C3C31CCF8503000238E
:1052C800CCF84820CCF8543001238CF83C408CF8BA
:1052D8003D3003690068012B08BFCCF84C20DAB2D6
:1052E8001CB906F0D9FC002010BD06F0DDFC00203A
:1052F80010BD00BF38B5436801F00F059D4234D892
:105308000B0604461DD41C22C1EBC10302FB01019C
:1053180000EB8303002201F5FE7183F8FD210123D0
:105328000D708B7094F8BC239A421CD0206884F8C6
:10533800BC3306F079FCD5B10023184684F8BC3399
:1053480038BD1C21C5EBC503012201FB050100EB9B
:1053580083033C3183F83D2001230D708B7094F852
:10536800BC239A42E2D1022038BD012038BD04F5A1
:105378007172217C206806F003FCDDE701F00F0262
:1053880038B543689A4233D8C2EBC20309060446CB
:105398004FEA83031AD4C2EBC20003F5FE7300255B
:1053A80004EB8000E11880F8FD5100250A708D702B
:1053B80094F8BC33012B19D00123206884F8BC333E
:1053C80006F076FC284684F8BC5338BDC2EBC20010
:1053D8003C33012504EB8000E11880F83D5000259E
:1053E8000A708D7094F8BC33012BE5D1022038BDCA
:1053F800012038BD704700BF38B5114BDA68520735
:1054080004D4DB6803F00703834214D10C4CE3682F
:1054180023F007030343E36006F01EF8054605E0A2
:1054280006F01AF8401BB0F57A7F06D863689B042B
:10543800F6D5002038BD012038BD032038BD00BF97
:1054480000480258024AD36843F08073D36070471B
:1054580000480258B2F1406F4B6A2DE9F04301D081
:10546800002B53D18C69D1E9079764B323430468AF
:10547800486913434D6B4FEA804C0868D1E90B86A5
:10548800002F66D043EA070E8B680F69E361B9F114
:10549800000F75D040EA0903C868B2F1406F43EACB
:1054A800080343EA060343EA050343EA070343EA1A
:1054B800000343EA0C0343EA0E0363616AD04B68B6
:1054C800A361BDE8F08337B33B4304684D6988683E
:1054D8001343AD044E6BE0610869D1E90BC7B9F11C
:1054E800000F63D040EA0900B2F1406F40EA0C00B7
:1054F80040EA070040EA0600CE6840EA060040EAB3
:10550800050043EA00036361D9D143E08C6A05686A
:10551800013C2C61A6E7B9F1000F50D043EA09031A
:10552800CC6A0068B2F1406F43EA020343EA04031D
:105538000C6B43EA04034C6B43EA0403CC6843EA6C
:1055480004034C6943EA8443436123D04B68836175
:1055580020E0B9F1000F1FD040EA0900B2F1406F16
:1055680040EA080040EA060040EA0500CD6840EA43
:10557800050040EA0C0043EA000363619FD109E09B
:1055880040EA080333432B433B4343EA0C0343EA13
:105598000E036361BDE8F08340EA080232432A4300
:1055A80042EA0C0213436361BDE8F08340EA0C024F
:1055B8003A4332432A4313436361BDE8F083002B27
:1055C800E8D0CC6A006823430C6B13434A69234331
:1055D8004C6B234343EA82434361DBE770B50446DF
:1055E80005F03AFF002C57D094F84030012B55D0E5
:1055F8000123054684F8403094F8413003F0FF0257
:10560800002B37D0A66C2268A1681368013923F4EF
:10561800706343EA0123136093689B0604D5701CEA
:1056280032D193689906FCD4D4E90750E36811682D
:105638002B4300250343606843EA00631C48084085
:10564800616903431360A36950680B43216943EA06
:1056580001431849014028460B435360136843F03F
:10566800010313600123656484F84130002384F842
:10567800403070BD204684F8402005F031FC41F2EE
:1056880088331E46A364BEE705F0E6FE401BB04221
:1056980006D82EB12268BFE7012070BD022070BD78
:1056A8000423012084F84130636C03436364DDE71D
:1056B8002FFFFF00FEF8E0FFC8B110B590F84030AA
:1056C8000446012B11D00268012380F8403013688A
:1056D80023F00103136005F08DFC00236364184672
:1056E80084F8413084F8403010BD022010BD0120FC
:1056F800704700BF2DE9F84304460F46164605F0EB
:10570800ABFE94F84030012B33D0012384F84030AD
:1057180094F84130012B5FFA83F807D04FF0020864
:105728000023404684F84030BDE8F8830023711C0C
:10573800814663644FF0020384F841301ED1256826
:10574800AA6812F02002FBD139462046FFF782FEF4
:105758007B6A2BB1012384F841304FF00008DFE762
:10576800AB689A07FCD502220123EA6084F841302D
:10577800F3E74FF002084046BDE8F8832568AA68B9
:1057880012F020020FD005F067FEA0EB09039E423D
:1057980001D3002EF2D1042384F84130636C43F026
:1057A80001036364BCE739462046FFF753FE7B6A72
:1057B800002BCFD1AB689B07D5D405F04DFEA0EBED
:1057C80009039E42E7D3002EE5D02568F2E700BF23
:1057D8002DE9F84304460E46174605F03DFE94F8B9
:1057E80040302568012B38D0012384F8403094F8E4
:1057F8004130012B5FFA83F807D04FF002080023ED
:10580800404684F84030BDE8F883002363644EB313
:105818001223814684F841302B690133E3622B69F6
:1058280066620133A3626B6923F040636B61E36ACC
:105838004BB37B1C3ED131462A4693685E07FCD5A4
:105848000B7885F82030E36A616A013B0131E36235
:10585800E36A61625BB12268EFE74FF002084046F5
:10586800BDE8F883636C43F008036364C7E7256801
:10587800AB689A07FCD502234FF00008EB600123C0
:1058880084F84130BBE7791CF2D007E005F0E4FD6D
:10589800A0EB09039F4205D327B12568AB689B0796
:1058A800F4D5E8E7042384F84130636C43F001033E
:1058B8006364E4E72B4608E005F0CEFDA0EB09039E
:1058C8009F42EFD3002FEDD023689B685807F3D58C
:1058D800636A1B7885F82030E26A636A013A01330B
:1058E800E262E26A6362002AEED1D6E72DE9F84364
:1058F800044617460E4605F0AFFD2568AA6994F8D8
:105908004030012B3CD0012384F8403094F84130DA
:10591800012B5FFA83F807D04FF0020800234046B6
:1059280084F84030BDE8F883002363646EB3222313
:10593800814684F841302B690133A3632B692663C0
:10594800013363636B6923F0406343F080636B61E9
:10595800AA61A36B53B3781C3FD131462A4693689A
:1059680013F0060FFBD095F820300B70A36B216B5A
:10597800013B0131A363A36B21635BB12268EEE7AE
:105988004FF002084046BDE8F883636C43F0080313
:105998006364C3E72568AB689A07FCD502234FF018
:1059A8000008EB60012384F84130B7E7791CF2D096
:1059B80007E005F051FDA0EB09039F4205D327B18D
:1059C8002568AB689B07F4D5E8E7042384F84130E1
:1059D800636C43F001036364E4E72B4608E005F0D9
:1059E8003BFDA0EB09039F42EFD3002FEDD02368C6
:1059F8009B6813F0060FF2D095F82020236B1A70DD
:105A0800A26B236B013A0133A263A26B2363002AC2
:105A1800EDD1D5E72DE9F047044698460F461646DE
:105A280005F01AFD94F84030012B3FD0012384F88B
:105A3800403094F84130012B5FFA83F907D04FF0DA
:105A480002090023484684F84030BDE8F087002367
:105A5800B8F1FF3F824663644FF0420384F8413057
:105A680029D12568AB689806FCD43368204632698A
:105A7800AB627368F1686B62B368EB622B6823F4FE
:105A8800400313434FF0006243F480032B60B96274
:105A98003946FFF7DFFCAB681A07FCD5082201235B
:105AA8004FF00009EA6084F84130CAE74FF0020974
:105AB8004846BDE8F0872568AB68990610D505F01B
:105AC800CBFCA0EB0A03984502D3B8F1000FF2D142
